{
  "contractName": "Greetings",
  "abi": [
    {
      "inputs": [],
      "payable": false,
      "stateMutability": "nonpayable",
      "type": "constructor",
      "signature": "constructor"
    },
    {
      "constant": false,
      "inputs": [
        {
          "name": "greet2",
          "type": "string"
        }
      ],
      "name": "setGreeting",
      "outputs": [],
      "payable": true,
      "stateMutability": "payable",
      "type": "function",
      "signature": "0xa4136862"
    },
    {
      "constant": true,
      "inputs": [],
      "name": "getGreeting",
      "outputs": [
        {
          "name": "",
          "type": "string"
        }
      ],
      "payable": false,
      "stateMutability": "view",
      "type": "function",
      "signature": "0xfe50cc72"
    }
  ],
  "bytecode": "0x608060405234801561001057600080fd5b50610329806100206000396000f3fe60806040526004361061004c576000357c0100000000000000000000000000000000000000000000000000000000900463ffffffff168063a413686214610051578063fe50cc721461010c575b600080fd5b61010a6004803603602081101561006757600080fd5b810190808035906020019064010000000081111561008457600080fd5b82018360208201111561009657600080fd5b803590602001918460018302840111640100000000831117156100b857600080fd5b91908080601f016020809104026020016040519081016040528093929190818152602001838380828437600081840152601f19601f82011690508083019250505050505050919291929050505061019c565b005b34801561011857600080fd5b506101216101b6565b6040518080602001828103825283818151815260200191508051906020019080838360005b83811015610161578082015181840152602081019050610146565b50505050905090810190601f16801561018e5780820380516001836020036101000a031916815260200191505b509250505060405180910390f35b80600090805190602001906101b2929190610258565b5050565b606060008054600181600116156101000203166002900480601f01602080910402602001604051908101604052809291908181526020018280546001816001161561010002031660029004801561024e5780601f106102235761010080835404028352916020019161024e565b820191906000526020600020905b81548152906001019060200180831161023157829003601f168201915b5050505050905090565b828054600181600116156101000203166002900490600052602060002090601f016020900481019282601f1061029957805160ff19168380011785556102c7565b828001600101855582156102c7579182015b828111156102c65782518255916020019190600101906102ab565b5b5090506102d491906102d8565b5090565b6102fa91905b808211156102f65760008160009055506001016102de565b5090565b9056fea165627a7a72305820709672d42bcb0a6e3bb194538fb8b899e99b77031a4abe39c765fd6d254b5ae00029",
  "source": "pragma solidity >=0.4.21 <0.6.0;\n\n\ncontract Greetings {\n\n  string greet;\n\n  constructor() public {\n  }\n\n  function setGreeting(string memory greet2) public payable {\n        greet = greet2;\n  }\n\n  function getGreeting() public view returns(string memory){\n    return greet;\n  }\n\n}\n",
  "sourcePath": "C:/Users/manraju/desktop/angular/blockchain/testproj/contracts/Greetings.sol",
  "compiler": {
    "name": "solc",
    "version": "0.5.0+commit.1d4f565a.Emscripten.clang"
  },
  "schemaVersion": "3.0.0",
  "updatedAt": "2019-01-19T17:18:40.410Z",
  "devdoc": {
    "methods": {}
  },
  "userdoc": {
    "methods": {}
  }
}